{
  "contractName": "MarketOptimizer",
  "abi": [
    {
      "inputs": [],
      "stateMutability": "nonpayable",
      "type": "constructor"
    },
    {
      "anonymous": false,
      "inputs": [
        {
          "indexed": true,
          "internalType": "address",
          "name": "executor",
          "type": "address"
        },
        {
          "indexed": false,
          "internalType": "uint256",
          "name": "timestamp",
          "type": "uint256"
        },
        {
          "indexed": false,
          "internalType": "string",
          "name": "decisionType",
          "type": "string"
        },
        {
          "indexed": false,
          "internalType": "uint256",
          "name": "value",
          "type": "uint256"
        }
      ],
      "name": "DecisionRecorded",
      "type": "event"
    },
    {
      "inputs": [
        {
          "internalType": "address",
          "name": "",
          "type": "address"
        }
      ],
      "name": "votes",
      "outputs": [
        {
          "internalType": "uint256",
          "name": "",
          "type": "uint256"
        }
      ],
      "stateMutability": "view",
      "type": "function",
      "constant": true
    },
    {
      "inputs": [
        {
          "internalType": "string",
          "name": "decisionType",
          "type": "string"
        },
        {
          "internalType": "uint256",
          "name": "value",
          "type": "uint256"
        }
      ],
      "name": "recordDecision",
      "outputs": [],
      "stateMutability": "nonpayable",
      "type": "function"
    },
    {
      "inputs": [
        {
          "internalType": "uint256",
          "name": "",
          "type": "uint256"
        },
        {
          "internalType": "uint256",
          "name": "voteValue",
          "type": "uint256"
        }
      ],
      "name": "vote",
      "outputs": [],
      "stateMutability": "nonpayable",
      "type": "function"
    }
  ],
  "bytecode": "0x608060405234801561001057600080fd5b50610540806100206000396000f3fe608060405234801561001057600080fd5b50600436106100415760003560e01c806327644a7914610046578063b384abef14610062578063d8bff5a51461007e575b600080fd5b610060600480360381019061005b919061022a565b6100ae565b005b61007c60048036038101906100779190610286565b610104565b005b610098600480360381019061009391906101fd565b61014b565b6040516100a5919061030e565b60405180910390f35b3373ffffffffffffffffffffffffffffffffffffffff167fb03bdc72392ab669c69017f2455a1020b7a492b1663f54214eb6618ce4b9ca754284846040516100f893929190610329565b60405180910390a25050565b806000803373ffffffffffffffffffffffffffffffffffffffff1673ffffffffffffffffffffffffffffffffffffffff168152602001908152602001600020819055505050565b60006020528060005260406000206000915090505481565b60006101766101718461038c565b610367565b905082815260208101848484011115610192576101916104bc565b5b61019d848285610415565b509392505050565b6000813590506101b4816104dc565b92915050565b600082601f8301126101cf576101ce6104b7565b5b81356101df848260208601610163565b91505092915050565b6000813590506101f7816104f3565b92915050565b600060208284031215610213576102126104c6565b5b6000610221848285016101a5565b91505092915050565b60008060408385031215610241576102406104c6565b5b600083013567ffffffffffffffff81111561025f5761025e6104c1565b5b61026b858286016101ba565b925050602061027c858286016101e8565b9150509250929050565b6000806040838503121561029d5761029c6104c6565b5b60006102ab858286016101e8565b92505060206102bc858286016101e8565b9150509250929050565b60006102d1826103bd565b6102db81856103c8565b93506102eb818560208601610424565b6102f4816104cb565b840191505092915050565b6103088161040b565b82525050565b600060208201905061032360008301846102ff565b92915050565b600060608201905061033e60008301866102ff565b818103602083015261035081856102c6565b905061035f60408301846102ff565b949350505050565b6000610371610382565b905061037d8282610457565b919050565b6000604051905090565b600067ffffffffffffffff8211156103a7576103a6610488565b5b6103b0826104cb565b9050602081019050919050565b600081519050919050565b600082825260208201905092915050565b60006103e4826103eb565b9050919050565b600073ffffffffffffffffffffffffffffffffffffffff82169050919050565b6000819050919050565b82818337600083830152505050565b60005b83811015610442578082015181840152602081019050610427565b83811115610451576000848401525b50505050565b610460826104cb565b810181811067ffffffffffffffff8211171561047f5761047e610488565b5b80604052505050565b7f4e487b7100000000000000000000000000000000000000000000000000000000600052604160045260246000fd5b600080fd5b600080fd5b600080fd5b600080fd5b6000601f19601f8301169050919050565b6104e5816103d9565b81146104f057600080fd5b50565b6104fc8161040b565b811461050757600080fd5b5056fea2646970667358221220b5d8fe6d66bea1f3560b01afec4d4551f1ac1768bcc2c60e2a2b48459227189764736f6c63430008070033",
  "immutableReferences": {},
  "source": "// SPDX-License-Identifier: MIT\npragma solidity ^0.8.0;\n\ncontract MarketOptimizer {\n    event DecisionRecorded(address indexed executor, uint256 timestamp, string decisionType, uint256 value);\n\n    // Explicit empty constructor for clarity\n    constructor() {}\n\n    // A function to record a decision\n    function recordDecision(string memory decisionType, uint256 value) public {\n        emit DecisionRecorded(msg.sender, block.timestamp, decisionType, value);\n    }\n\n    // A simple voting function that doesn't use the unused parameter\n    mapping(address => uint256) public votes;\n    \n    function vote(uint256 /*proposalId*/, uint256 voteValue) public {\n        votes[msg.sender] = voteValue;\n    }\n}\n\n",
  "sourcePath": "/Users/amintarebecca/Desktop/block/AdaptiveMarketOptimizer/blockchain/contracts/MarketOptimizer.sol",
  "compiler": {
    "name": "solc",
    "version": "0.8.7+commit.e28d00a7.Emscripten.clang"
  },
  "schemaVersion": "3.4.16",
  "updatedAt": "2025-02-19T03:39:11.278Z",
  "networkType": "ethereum",
  "devdoc": {
    "kind": "dev",
    "methods": {},
    "version": 1
  },
  "userdoc": {
    "kind": "user",
    "methods": {},
    "version": 1
  }
}